{
  "contractName": "StakingRewards",
  "abi": [
    {
      "inputs": [
        {
          "internalType": "address",
          "name": "_stakingToken",
          "type": "address"
        },
        {
          "internalType": "address",
          "name": "_rewardsToken",
          "type": "address"
        }
      ],
      "stateMutability": "nonpayable",
      "type": "constructor"
    },
    {
      "anonymous": false,
      "inputs": [
        {
          "indexed": true,
          "internalType": "address",
          "name": "owner",
          "type": "address"
        },
        {
          "indexed": true,
          "internalType": "address",
          "name": "spender",
          "type": "address"
        },
        {
          "indexed": false,
          "internalType": "uint256",
          "name": "value",
          "type": "uint256"
        }
      ],
      "name": "Approval",
      "type": "event"
    },
    {
      "anonymous": false,
      "inputs": [
        {
          "indexed": false,
          "internalType": "uint256",
          "name": "amount",
          "type": "uint256"
        }
      ],
      "name": "Buy",
      "type": "event"
    },
    {
      "anonymous": false,
      "inputs": [
        {
          "indexed": true,
          "internalType": "address",
          "name": "previousOwner",
          "type": "address"
        },
        {
          "indexed": true,
          "internalType": "address",
          "name": "newOwner",
          "type": "address"
        }
      ],
      "name": "OwnershipTransferred",
      "type": "event"
    },
    {
      "anonymous": false,
      "inputs": [
        {
          "indexed": true,
          "internalType": "address",
          "name": "from",
          "type": "address"
        },
        {
          "indexed": true,
          "internalType": "address",
          "name": "to",
          "type": "address"
        },
        {
          "indexed": false,
          "internalType": "uint256",
          "name": "value",
          "type": "uint256"
        }
      ],
      "name": "Transfer",
      "type": "event"
    },
    {
      "inputs": [
        {
          "internalType": "address",
          "name": "owner",
          "type": "address"
        },
        {
          "internalType": "address",
          "name": "spender",
          "type": "address"
        }
      ],
      "name": "allowance",
      "outputs": [
        {
          "internalType": "uint256",
          "name": "",
          "type": "uint256"
        }
      ],
      "stateMutability": "view",
      "type": "function",
      "constant": true
    },
    {
      "inputs": [
        {
          "internalType": "address",
          "name": "spender",
          "type": "address"
        },
        {
          "internalType": "uint256",
          "name": "amount",
          "type": "uint256"
        }
      ],
      "name": "approve",
      "outputs": [
        {
          "internalType": "bool",
          "name": "",
          "type": "bool"
        }
      ],
      "stateMutability": "nonpayable",
      "type": "function"
    },
    {
      "inputs": [
        {
          "internalType": "address",
          "name": "account",
          "type": "address"
        }
      ],
      "name": "balanceOf",
      "outputs": [
        {
          "internalType": "uint256",
          "name": "",
          "type": "uint256"
        }
      ],
      "stateMutability": "view",
      "type": "function",
      "constant": true
    },
    {
      "inputs": [
        {
          "internalType": "address",
          "name": "receiver",
          "type": "address"
        }
      ],
      "name": "buyToken",
      "outputs": [],
      "stateMutability": "payable",
      "type": "function",
      "payable": true
    },
    {
      "inputs": [],
      "name": "decimals",
      "outputs": [
        {
          "internalType": "uint8",
          "name": "",
          "type": "uint8"
        }
      ],
      "stateMutability": "view",
      "type": "function",
      "constant": true
    },
    {
      "inputs": [
        {
          "internalType": "address",
          "name": "spender",
          "type": "address"
        },
        {
          "internalType": "uint256",
          "name": "subtractedValue",
          "type": "uint256"
        }
      ],
      "name": "decreaseAllowance",
      "outputs": [
        {
          "internalType": "bool",
          "name": "",
          "type": "bool"
        }
      ],
      "stateMutability": "nonpayable",
      "type": "function"
    },
    {
      "inputs": [
        {
          "internalType": "address",
          "name": "spender",
          "type": "address"
        },
        {
          "internalType": "uint256",
          "name": "addedValue",
          "type": "uint256"
        }
      ],
      "name": "increaseAllowance",
      "outputs": [
        {
          "internalType": "bool",
          "name": "",
          "type": "bool"
        }
      ],
      "stateMutability": "nonpayable",
      "type": "function"
    },
    {
      "inputs": [],
      "name": "lastUpdateTime",
      "outputs": [
        {
          "internalType": "uint256",
          "name": "",
          "type": "uint256"
        }
      ],
      "stateMutability": "view",
      "type": "function",
      "constant": true
    },
    {
      "inputs": [
        {
          "internalType": "address",
          "name": "to",
          "type": "address"
        },
        {
          "internalType": "uint256",
          "name": "amount",
          "type": "uint256"
        }
      ],
      "name": "mint",
      "outputs": [],
      "stateMutability": "nonpayable",
      "type": "function"
    },
    {
      "inputs": [
        {
          "internalType": "uint256",
          "name": "_rate",
          "type": "uint256"
        }
      ],
      "name": "modifyTokenBuyPrice",
      "outputs": [],
      "stateMutability": "nonpayable",
      "type": "function"
    },
    {
      "inputs": [],
      "name": "name",
      "outputs": [
        {
          "internalType": "string",
          "name": "",
          "type": "string"
        }
      ],
      "stateMutability": "view",
      "type": "function",
      "constant": true
    },
    {
      "inputs": [],
      "name": "owner",
      "outputs": [
        {
          "internalType": "address",
          "name": "",
          "type": "address"
        }
      ],
      "stateMutability": "view",
      "type": "function",
      "constant": true
    },
    {
      "inputs": [],
      "name": "rate",
      "outputs": [
        {
          "internalType": "uint256",
          "name": "",
          "type": "uint256"
        }
      ],
      "stateMutability": "view",
      "type": "function",
      "constant": true
    },
    {
      "inputs": [],
      "name": "renounceOwnership",
      "outputs": [],
      "stateMutability": "nonpayable",
      "type": "function"
    },
    {
      "inputs": [],
      "name": "rewardPerTokenStored",
      "outputs": [
        {
          "internalType": "uint256",
          "name": "",
          "type": "uint256"
        }
      ],
      "stateMutability": "view",
      "type": "function",
      "constant": true
    },
    {
      "inputs": [],
      "name": "rewardRate",
      "outputs": [
        {
          "internalType": "uint256",
          "name": "",
          "type": "uint256"
        }
      ],
      "stateMutability": "view",
      "type": "function",
      "constant": true
    },
    {
      "inputs": [
        {
          "internalType": "address",
          "name": "",
          "type": "address"
        }
      ],
      "name": "rewards",
      "outputs": [
        {
          "internalType": "uint256",
          "name": "",
          "type": "uint256"
        }
      ],
      "stateMutability": "view",
      "type": "function",
      "constant": true
    },
    {
      "inputs": [],
      "name": "rewardsToken",
      "outputs": [
        {
          "internalType": "contract IERC20",
          "name": "",
          "type": "address"
        }
      ],
      "stateMutability": "view",
      "type": "function",
      "constant": true
    },
    {
      "inputs": [],
      "name": "stakingToken",
      "outputs": [
        {
          "internalType": "contract IERC20",
          "name": "",
          "type": "address"
        }
      ],
      "stateMutability": "view",
      "type": "function",
      "constant": true
    },
    {
      "inputs": [],
      "name": "symbol",
      "outputs": [
        {
          "internalType": "string",
          "name": "",
          "type": "string"
        }
      ],
      "stateMutability": "view",
      "type": "function",
      "constant": true
    },
    {
      "inputs": [],
      "name": "totalSupply",
      "outputs": [
        {
          "internalType": "uint256",
          "name": "",
          "type": "uint256"
        }
      ],
      "stateMutability": "view",
      "type": "function",
      "constant": true
    },
    {
      "inputs": [
        {
          "internalType": "address",
          "name": "to",
          "type": "address"
        },
        {
          "internalType": "uint256",
          "name": "amount",
          "type": "uint256"
        }
      ],
      "name": "transfer",
      "outputs": [
        {
          "internalType": "bool",
          "name": "",
          "type": "bool"
        }
      ],
      "stateMutability": "nonpayable",
      "type": "function"
    },
    {
      "inputs": [
        {
          "internalType": "address",
          "name": "from",
          "type": "address"
        },
        {
          "internalType": "address",
          "name": "to",
          "type": "address"
        },
        {
          "internalType": "uint256",
          "name": "amount",
          "type": "uint256"
        }
      ],
      "name": "transferFrom",
      "outputs": [
        {
          "internalType": "bool",
          "name": "",
          "type": "bool"
        }
      ],
      "stateMutability": "nonpayable",
      "type": "function"
    },
    {
      "inputs": [
        {
          "internalType": "address",
          "name": "newOwner",
          "type": "address"
        }
      ],
      "name": "transferOwnership",
      "outputs": [],
      "stateMutability": "nonpayable",
      "type": "function"
    },
    {
      "inputs": [
        {
          "internalType": "address",
          "name": "",
          "type": "address"
        }
      ],
      "name": "userRewardPerTokenPaid",
      "outputs": [
        {
          "internalType": "uint256",
          "name": "",
          "type": "uint256"
        }
      ],
      "stateMutability": "view",
      "type": "function",
      "constant": true
    },
    {
      "inputs": [],
      "name": "rewardPerToken",
      "outputs": [
        {
          "internalType": "uint256",
          "name": "",
          "type": "uint256"
        }
      ],
      "stateMutability": "view",
      "type": "function",
      "constant": true
    },
    {
      "inputs": [
        {
          "internalType": "address",
          "name": "account",
          "type": "address"
        }
      ],
      "name": "earned",
      "outputs": [
        {
          "internalType": "uint256",
          "name": "",
          "type": "uint256"
        }
      ],
      "stateMutability": "view",
      "type": "function",
      "constant": true
    },
    {
      "inputs": [
        {
          "internalType": "uint256",
          "name": "_amount",
          "type": "uint256"
        }
      ],
      "name": "stake",
      "outputs": [],
      "stateMutability": "nonpayable",
      "type": "function"
    },
    {
      "inputs": [
        {
          "internalType": "uint256",
          "name": "_amount",
          "type": "uint256"
        }
      ],
      "name": "withdraw",
      "outputs": [],
      "stateMutability": "nonpayable",
      "type": "function"
    },
    {
      "inputs": [],
      "name": "getReward",
      "outputs": [],
      "stateMutability": "nonpayable",
      "type": "function"
    }
  ],
  "bytecode": "0x60806040526103e8600655606460095542600a556000600b553480156200002557600080fd5b506040516200337a3803806200337a83398181016040528101906200004b919062000546565b6040518060400160405280600981526020017f426f72695374616b6500000000000000000000000000000000000000000000008152506040518060400160405280600481526020017f4253544b000000000000000000000000000000000000000000000000000000008152508160039080519060200190620000cf9291906200042c565b508060049080519060200190620000e89291906200042c565b5050506200010b620000ff620001d360201b60201c565b620001db60201b60201c565b620001493362000120620002a160201b60201c565b600a6200012e919062000727565b6103e86200013d919062000778565b620002aa60201b60201c565b81600860006101000a81548173ffffffffffffffffffffffffffffffffffffffff021916908373ffffffffffffffffffffffffffffffffffffffff16021790555080600760006101000a81548173ffffffffffffffffffffffffffffffffffffffff021916908373ffffffffffffffffffffffffffffffffffffffff16021790555050506200094b565b600033905090565b6000600560009054906101000a900473ffffffffffffffffffffffffffffffffffffffff16905081600560006101000a81548173ffffffffffffffffffffffffffffffffffffffff021916908373ffffffffffffffffffffffffffffffffffffffff1602179055508173ffffffffffffffffffffffffffffffffffffffff168173ffffffffffffffffffffffffffffffffffffffff167f8be0079c531659141344cd1fd0a4f28419497f9722a3daafe3b4186f6b6457e060405160405180910390a35050565b60006012905090565b600073ffffffffffffffffffffffffffffffffffffffff168273ffffffffffffffffffffffffffffffffffffffff16036200031c576040517f08c379a000000000000000000000000000000000000000000000000000000000815260040162000313906200083a565b60405180910390fd5b62000330600083836200042260201b60201c565b80600260008282546200034491906200085c565b92505081905550806000808473ffffffffffffffffffffffffffffffffffffffff1673ffffffffffffffffffffffffffffffffffffffff16815260200190815260200160002060008282546200039b91906200085c565b925050819055508173ffffffffffffffffffffffffffffffffffffffff16600073ffffffffffffffffffffffffffffffffffffffff167fddf252ad1be2c89b69c2b068fc378daa952ba7f163c4a11628f55a4df523b3ef83604051620004029190620008ca565b60405180910390a36200041e600083836200042760201b60201c565b5050565b505050565b505050565b8280546200043a9062000916565b90600052602060002090601f0160209004810192826200045e5760008555620004aa565b82601f106200047957805160ff1916838001178555620004aa565b82800160010185558215620004aa579182015b82811115620004a95782518255916020019190600101906200048c565b5b509050620004b99190620004bd565b5090565b5b80821115620004d8576000816000905550600101620004be565b5090565b600080fd5b600073ffffffffffffffffffffffffffffffffffffffff82169050919050565b60006200050e82620004e1565b9050919050565b620005208162000501565b81146200052c57600080fd5b50565b600081519050620005408162000515565b92915050565b6000806040838503121562000560576200055f620004dc565b5b600062000570858286016200052f565b925050602062000583858286016200052f565b9150509250929050565b7f4e487b7100000000000000000000000000000000000000000000000000000000600052601160045260246000fd5b60008160011c9050919050565b6000808291508390505b60018511156200061b57808604811115620005f357620005f26200058d565b5b6001851615620006035780820291505b80810290506200061385620005bc565b9450620005d3565b94509492505050565b60008262000636576001905062000709565b8162000646576000905062000709565b81600181146200065f57600281146200066a57620006a0565b600191505062000709565b60ff8411156200067f576200067e6200058d565b5b8360020a9150848211156200069957620006986200058d565b5b5062000709565b5060208310610133831016604e8410600b8410161715620006da5782820a905083811115620006d457620006d36200058d565b5b62000709565b620006e98484846001620005c9565b925090508184048111156200070357620007026200058d565b5b81810290505b9392505050565b6000819050919050565b600060ff82169050919050565b6000620007348262000710565b915062000741836200071a565b9250620007707fffffffffffffffffffffffffffffffffffffffffffffffffffffffffffffffff848462000624565b905092915050565b6000620007858262000710565b9150620007928362000710565b9250817fffffffffffffffffffffffffffffffffffffffffffffffffffffffffffffffff0483118215151615620007ce57620007cd6200058d565b5b828202905092915050565b600082825260208201905092915050565b7f45524332303a206d696e7420746f20746865207a65726f206164647265737300600082015250565b600062000822601f83620007d9565b91506200082f82620007ea565b602082019050919050565b60006020820190508181036000830152620008558162000813565b9050919050565b6000620008698262000710565b9150620008768362000710565b9250827fffffffffffffffffffffffffffffffffffffffffffffffffffffffffffffffff03821115620008ae57620008ad6200058d565b5b828201905092915050565b620008c48162000710565b82525050565b6000602082019050620008e16000830184620008b9565b92915050565b7f4e487b7100000000000000000000000000000000000000000000000000000000600052602260045260246000fd5b600060028204905060018216806200092f57607f821691505b602082108103620009455762000944620008e7565b5b50919050565b612a1f806200095b6000396000f3fe6080604052600436106101cc5760003560e01c80637b0a47ee116100f7578063a694fc3a11610095578063d1af0c7d11610064578063d1af0c7d14610692578063dd62ed3e146106bd578063df136d65146106fa578063f2fde38b14610725576101cc565b8063a694fc3a146105d6578063a9059cbb146105ff578063c8f33c911461063c578063cd3daf9d14610667576101cc565b80638b876347116100d15780638b876347146105065780638da5cb5b1461054357806395d89b411461056e578063a457c2d714610599576101cc565b80637b0a47ee146104965780637e72fb52146104c1578063834dc984146104dd576101cc565b80632e1a7d4d1161016f57806340c10f191161013e57806340c10f19146103ee57806370a0823114610417578063715018a61461045457806372f702f31461046b576101cc565b80632e1a7d4d14610346578063313ce5671461036f578063395093511461039a5780633d18b912146103d7576101cc565b8063095ea7b3116101ab578063095ea7b31461027657806318160ddd146102b357806323b872dd146102de5780632c4e722e1461031b576101cc565b80628cc262146101d157806306fdde031461020e5780630700037d14610239575b600080fd5b3480156101dd57600080fd5b506101f860048036038101906101f39190611dea565b61074e565b6040516102059190611e30565b60405180910390f35b34801561021a57600080fd5b50610223610850565b6040516102309190611ee4565b60405180910390f35b34801561024557600080fd5b50610260600480360381019061025b9190611dea565b6108e2565b60405161026d9190611e30565b60405180910390f35b34801561028257600080fd5b5061029d60048036038101906102989190611f32565b6108fa565b6040516102aa9190611f8d565b60405180910390f35b3480156102bf57600080fd5b506102c861091d565b6040516102d59190611e30565b60405180910390f35b3480156102ea57600080fd5b5061030560048036038101906103009190611fa8565b610927565b6040516103129190611f8d565b60405180910390f35b34801561032757600080fd5b50610330610956565b60405161033d9190611e30565b60405180910390f35b34801561035257600080fd5b5061036d60048036038101906103689190611ffb565b61095c565b005b34801561037b57600080fd5b50610384610b18565b6040516103919190612044565b60405180910390f35b3480156103a657600080fd5b506103c160048036038101906103bc9190611f32565b610b21565b6040516103ce9190611f8d565b60405180910390f35b3480156103e357600080fd5b506103ec610bcb565b005b3480156103fa57600080fd5b5061041560048036038101906104109190611f32565b610da1565b005b34801561042357600080fd5b5061043e60048036038101906104399190611dea565b610e2b565b60405161044b9190611e30565b60405180910390f35b34801561046057600080fd5b50610469610e73565b005b34801561047757600080fd5b50610480610efb565b60405161048d91906120be565b60405180910390f35b3480156104a257600080fd5b506104ab610f21565b6040516104b89190611e30565b60405180910390f35b6104db60048036038101906104d69190611dea565b610f27565b005b3480156104e957600080fd5b5061050460048036038101906104ff9190611ffb565b611008565b005b34801561051257600080fd5b5061052d60048036038101906105289190611dea565b61108e565b60405161053a9190611e30565b60405180910390f35b34801561054f57600080fd5b506105586110a6565b60405161056591906120e8565b60405180910390f35b34801561057a57600080fd5b506105836110d0565b6040516105909190611ee4565b60405180910390f35b3480156105a557600080fd5b506105c060048036038101906105bb9190611f32565b611162565b6040516105cd9190611f8d565b60405180910390f35b3480156105e257600080fd5b506105fd60048036038101906105f89190611ffb565b61124c565b005b34801561060b57600080fd5b5061062660048036038101906106219190611f32565b61140a565b6040516106339190611f8d565b60405180910390f35b34801561064857600080fd5b5061065161142d565b60405161065e9190611e30565b60405180910390f35b34801561067357600080fd5b5061067c611433565b6040516106899190611e30565b60405180910390f35b34801561069e57600080fd5b506106a76114d2565b6040516106b491906120be565b60405180910390f35b3480156106c957600080fd5b506106e460048036038101906106df9190612103565b6114f8565b6040516106f19190611e30565b60405180910390f35b34801561070657600080fd5b5061070f61157f565b60405161071c9190611e30565b60405180910390f35b34801561073157600080fd5b5061074c60048036038101906107479190611dea565b611585565b005b6000600d60008373ffffffffffffffffffffffffffffffffffffffff1673ffffffffffffffffffffffffffffffffffffffff16815260200190815260200160002054670de0b6b3a7640000600c60008573ffffffffffffffffffffffffffffffffffffffff1673ffffffffffffffffffffffffffffffffffffffff168152602001908152602001600020546107e1611433565b6107eb9190612172565b600f60008673ffffffffffffffffffffffffffffffffffffffff1673ffffffffffffffffffffffffffffffffffffffff1681526020019081526020016000205461083591906121a6565b61083f919061222f565b6108499190612260565b9050919050565b60606003805461085f906122e5565b80601f016020809104026020016040519081016040528092919081815260200182805461088b906122e5565b80156108d85780601f106108ad576101008083540402835291602001916108d8565b820191906000526020600020905b8154815290600101906020018083116108bb57829003601f168201915b5050505050905090565b600d6020528060005260406000206000915090505481565b60008061090561167c565b9050610912818585611684565b600191505092915050565b6000600254905090565b60008061093261167c565b905061093f85828561184d565b61094a8585856118d9565b60019150509392505050565b60065481565b33610965611433565b600b8190555042600a8190555061097b8161074e565b600d60008373ffffffffffffffffffffffffffffffffffffffff1673ffffffffffffffffffffffffffffffffffffffff16815260200190815260200160002081905550600b54600c60008373ffffffffffffffffffffffffffffffffffffffff1673ffffffffffffffffffffffffffffffffffffffff1681526020019081526020016000208190555081600e6000828254610a169190612172565b9250508190555081600f60003373ffffffffffffffffffffffffffffffffffffffff1673ffffffffffffffffffffffffffffffffffffffff1681526020019081526020016000206000828254610a6c9190612172565b92505081905550600860009054906101000a900473ffffffffffffffffffffffffffffffffffffffff1673ffffffffffffffffffffffffffffffffffffffff1663a9059cbb33846040518363ffffffff1660e01b8152600401610ad0929190612316565b6020604051808303816000875af1158015610aef573d6000803e3d6000fd5b505050506040513d601f19601f82011682018060405250810190610b13919061236b565b505050565b60006012905090565b600080610b2c61167c565b9050610bc0818585600160008673ffffffffffffffffffffffffffffffffffffffff1673ffffffffffffffffffffffffffffffffffffffff16815260200190815260200160002060008973ffffffffffffffffffffffffffffffffffffffff1673ffffffffffffffffffffffffffffffffffffffff16815260200190815260200160002054610bbb9190612260565b611684565b600191505092915050565b33610bd4611433565b600b8190555042600a81905550610bea8161074e565b600d60008373ffffffffffffffffffffffffffffffffffffffff1673ffffffffffffffffffffffffffffffffffffffff16815260200190815260200160002081905550600b54600c60008373ffffffffffffffffffffffffffffffffffffffff1673ffffffffffffffffffffffffffffffffffffffff168152602001908152602001600020819055506000600d60003373ffffffffffffffffffffffffffffffffffffffff1673ffffffffffffffffffffffffffffffffffffffff1681526020019081526020016000205490506000600d60003373ffffffffffffffffffffffffffffffffffffffff1673ffffffffffffffffffffffffffffffffffffffff16815260200190815260200160002081905550600760009054906101000a900473ffffffffffffffffffffffffffffffffffffffff1673ffffffffffffffffffffffffffffffffffffffff1663a9059cbb33836040518363ffffffff1660e01b8152600401610d59929190612316565b6020604051808303816000875af1158015610d78573d6000803e3d6000fd5b505050506040513d601f19601f82011682018060405250810190610d9c919061236b565b505050565b610da961167c565b73ffffffffffffffffffffffffffffffffffffffff16610dc76110a6565b73ffffffffffffffffffffffffffffffffffffffff1614610e1d576040517f08c379a0000000000000000000000000000000000000000000000000000000008152600401610e14906123e4565b60405180910390fd5b610e278282611b58565b5050565b60008060008373ffffffffffffffffffffffffffffffffffffffff1673ffffffffffffffffffffffffffffffffffffffff168152602001908152602001600020549050919050565b610e7b61167c565b73ffffffffffffffffffffffffffffffffffffffff16610e996110a6565b73ffffffffffffffffffffffffffffffffffffffff1614610eef576040517f08c379a0000000000000000000000000000000000000000000000000000000008152600401610ee6906123e4565b60405180910390fd5b610ef96000611cb7565b565b600860009054906101000a900473ffffffffffffffffffffffffffffffffffffffff1681565b60095481565b60003411610f6a576040517f08c379a0000000000000000000000000000000000000000000000000000000008152600401610f6190612450565b60405180910390fd5b600060065434610f7a91906121a6565b9050610f868282610da1565b7f3e32821836f4caf5b64b2c8c6b460049a9797526960d31502f7575b8da39d5ae81604051610fb59190611e30565b60405180910390a18173ffffffffffffffffffffffffffffffffffffffff166108fc349081150290604051600060405180830381858888f19350505050158015611003573d6000803e3d6000fd5b505050565b61101061167c565b73ffffffffffffffffffffffffffffffffffffffff1661102e6110a6565b73ffffffffffffffffffffffffffffffffffffffff1614611084576040517f08c379a000000000000000000000000000000000000000000000000000000000815260040161107b906123e4565b60405180910390fd5b8060068190555050565b600c6020528060005260406000206000915090505481565b6000600560009054906101000a900473ffffffffffffffffffffffffffffffffffffffff16905090565b6060600480546110df906122e5565b80601f016020809104026020016040519081016040528092919081815260200182805461110b906122e5565b80156111585780601f1061112d57610100808354040283529160200191611158565b820191906000526020600020905b81548152906001019060200180831161113b57829003601f168201915b5050505050905090565b60008061116d61167c565b90506000600160008373ffffffffffffffffffffffffffffffffffffffff1673ffffffffffffffffffffffffffffffffffffffff16815260200190815260200160002060008673ffffffffffffffffffffffffffffffffffffffff1673ffffffffffffffffffffffffffffffffffffffff16815260200190815260200160002054905083811015611233576040517f08c379a000000000000000000000000000000000000000000000000000000000815260040161122a906124e2565b60405180910390fd5b6112408286868403611684565b60019250505092915050565b33611255611433565b600b8190555042600a8190555061126b8161074e565b600d60008373ffffffffffffffffffffffffffffffffffffffff1673ffffffffffffffffffffffffffffffffffffffff16815260200190815260200160002081905550600b54600c60008373ffffffffffffffffffffffffffffffffffffffff1673ffffffffffffffffffffffffffffffffffffffff1681526020019081526020016000208190555081600e60008282546113069190612260565b9250508190555081600f60003373ffffffffffffffffffffffffffffffffffffffff1673ffffffffffffffffffffffffffffffffffffffff168152602001908152602001600020600082825461135c9190612260565b92505081905550600860009054906101000a900473ffffffffffffffffffffffffffffffffffffffff1673ffffffffffffffffffffffffffffffffffffffff166323b872dd3330856040518463ffffffff1660e01b81526004016113c293929190612502565b6020604051808303816000875af11580156113e1573d6000803e3d6000fd5b505050506040513d601f19601f82011682018060405250810190611405919061236b565b505050565b60008061141561167c565b90506114228185856118d9565b600191505092915050565b600a5481565b600062093a80600a54426114479190612172565b1115611488576040517f08c379a000000000000000000000000000000000000000000000000000000000815260040161147f90612585565b60405180910390fd5b6000600e540361149c57600b5490506114cf565b600e54670de0b6b3a76400006009546114b591906121a6565b6114bf919061222f565b600b546114cc9190612260565b90505b90565b600760009054906101000a900473ffffffffffffffffffffffffffffffffffffffff1681565b6000600160008473ffffffffffffffffffffffffffffffffffffffff1673ffffffffffffffffffffffffffffffffffffffff16815260200190815260200160002060008373ffffffffffffffffffffffffffffffffffffffff1673ffffffffffffffffffffffffffffffffffffffff16815260200190815260200160002054905092915050565b600b5481565b61158d61167c565b73ffffffffffffffffffffffffffffffffffffffff166115ab6110a6565b73ffffffffffffffffffffffffffffffffffffffff1614611601576040517f08c379a00000000000000000000000000000000000000000000000000000000081526004016115f8906123e4565b60405180910390fd5b600073ffffffffffffffffffffffffffffffffffffffff168173ffffffffffffffffffffffffffffffffffffffff1603611670576040517f08c379a000000000000000000000000000000000000000000000000000000000815260040161166790612617565b60405180910390fd5b61167981611cb7565b50565b600033905090565b600073ffffffffffffffffffffffffffffffffffffffff168373ffffffffffffffffffffffffffffffffffffffff16036116f3576040517f08c379a00000000000000000000000000000000000000000000000000000000081526004016116ea906126a9565b60405180910390fd5b600073ffffffffffffffffffffffffffffffffffffffff168273ffffffffffffffffffffffffffffffffffffffff1603611762576040517f08c379a00000000000000000000000000000000000000000000000000000000081526004016117599061273b565b60405180910390fd5b80600160008573ffffffffffffffffffffffffffffffffffffffff1673ffffffffffffffffffffffffffffffffffffffff16815260200190815260200160002060008473ffffffffffffffffffffffffffffffffffffffff1673ffffffffffffffffffffffffffffffffffffffff168152602001908152602001600020819055508173ffffffffffffffffffffffffffffffffffffffff168373ffffffffffffffffffffffffffffffffffffffff167f8c5be1e5ebec7d5bd14f71427d1e84f3dd0314c0f7b2291e5b200ac8c7c3b925836040516118409190611e30565b60405180910390a3505050565b600061185984846114f8565b90507fffffffffffffffffffffffffffffffffffffffffffffffffffffffffffffffff81146118d357818110156118c5576040517f08c379a00000000000000000000000000000000000000000000000000000000081526004016118bc906127a7565b60405180910390fd5b6118d28484848403611684565b5b50505050565b600073ffffffffffffffffffffffffffffffffffffffff168373ffffffffffffffffffffffffffffffffffffffff1603611948576040517f08c379a000000000000000000000000000000000000000000000000000000000815260040161193f90612839565b60405180910390fd5b600073ffffffffffffffffffffffffffffffffffffffff168273ffffffffffffffffffffffffffffffffffffffff16036119b7576040517f08c379a00000000000000000000000000000000000000000000000000000000081526004016119ae906128cb565b60405180910390fd5b6119c2838383611d7d565b60008060008573ffffffffffffffffffffffffffffffffffffffff1673ffffffffffffffffffffffffffffffffffffffff16815260200190815260200160002054905081811015611a48576040517f08c379a0000000000000000000000000000000000000000000000000000000008152600401611a3f9061295d565b60405180910390fd5b8181036000808673ffffffffffffffffffffffffffffffffffffffff1673ffffffffffffffffffffffffffffffffffffffff16815260200190815260200160002081905550816000808573ffffffffffffffffffffffffffffffffffffffff1673ffffffffffffffffffffffffffffffffffffffff1681526020019081526020016000206000828254611adb9190612260565b925050819055508273ffffffffffffffffffffffffffffffffffffffff168473ffffffffffffffffffffffffffffffffffffffff167fddf252ad1be2c89b69c2b068fc378daa952ba7f163c4a11628f55a4df523b3ef84604051611b3f9190611e30565b60405180910390a3611b52848484611d82565b50505050565b600073ffffffffffffffffffffffffffffffffffffffff168273ffffffffffffffffffffffffffffffffffffffff1603611bc7576040517f08c379a0000000000000000000000000000000000000000000000000000000008152600401611bbe906129c9565b60405180910390fd5b611bd360008383611d7d565b8060026000828254611be59190612260565b92505081905550806000808473ffffffffffffffffffffffffffffffffffffffff1673ffffffffffffffffffffffffffffffffffffffff1681526020019081526020016000206000828254611c3a9190612260565b925050819055508173ffffffffffffffffffffffffffffffffffffffff16600073ffffffffffffffffffffffffffffffffffffffff167fddf252ad1be2c89b69c2b068fc378daa952ba7f163c4a11628f55a4df523b3ef83604051611c9f9190611e30565b60405180910390a3611cb360008383611d82565b5050565b6000600560009054906101000a900473ffffffffffffffffffffffffffffffffffffffff16905081600560006101000a81548173ffffffffffffffffffffffffffffffffffffffff021916908373ffffffffffffffffffffffffffffffffffffffff1602179055508173ffffffffffffffffffffffffffffffffffffffff168173ffffffffffffffffffffffffffffffffffffffff167f8be0079c531659141344cd1fd0a4f28419497f9722a3daafe3b4186f6b6457e060405160405180910390a35050565b505050565b505050565b600080fd5b600073ffffffffffffffffffffffffffffffffffffffff82169050919050565b6000611db782611d8c565b9050919050565b611dc781611dac565b8114611dd257600080fd5b50565b600081359050611de481611dbe565b92915050565b600060208284031215611e0057611dff611d87565b5b6000611e0e84828501611dd5565b91505092915050565b6000819050919050565b611e2a81611e17565b82525050565b6000602082019050611e456000830184611e21565b92915050565b600081519050919050565b600082825260208201905092915050565b60005b83811015611e85578082015181840152602081019050611e6a565b83811115611e94576000848401525b50505050565b6000601f19601f8301169050919050565b6000611eb682611e4b565b611ec08185611e56565b9350611ed0818560208601611e67565b611ed981611e9a565b840191505092915050565b60006020820190508181036000830152611efe8184611eab565b905092915050565b611f0f81611e17565b8114611f1a57600080fd5b50565b600081359050611f2c81611f06565b92915050565b60008060408385031215611f4957611f48611d87565b5b6000611f5785828601611dd5565b9250506020611f6885828601611f1d565b9150509250929050565b60008115159050919050565b611f8781611f72565b82525050565b6000602082019050611fa26000830184611f7e565b92915050565b600080600060608486031215611fc157611fc0611d87565b5b6000611fcf86828701611dd5565b9350506020611fe086828701611dd5565b9250506040611ff186828701611f1d565b9150509250925092565b60006020828403121561201157612010611d87565b5b600061201f84828501611f1d565b91505092915050565b600060ff82169050919050565b61203e81612028565b82525050565b60006020820190506120596000830184612035565b92915050565b6000819050919050565b600061208461207f61207a84611d8c565b61205f565b611d8c565b9050919050565b600061209682612069565b9050919050565b60006120a88261208b565b9050919050565b6120b88161209d565b82525050565b60006020820190506120d360008301846120af565b92915050565b6120e281611dac565b82525050565b60006020820190506120fd60008301846120d9565b92915050565b6000806040838503121561211a57612119611d87565b5b600061212885828601611dd5565b925050602061213985828601611dd5565b9150509250929050565b7f4e487b7100000000000000000000000000000000000000000000000000000000600052601160045260246000fd5b600061217d82611e17565b915061218883611e17565b92508282101561219b5761219a612143565b5b828203905092915050565b60006121b182611e17565b91506121bc83611e17565b9250817fffffffffffffffffffffffffffffffffffffffffffffffffffffffffffffffff04831182151516156121f5576121f4612143565b5b828202905092915050565b7f4e487b7100000000000000000000000000000000000000000000000000000000600052601260045260246000fd5b600061223a82611e17565b915061224583611e17565b92508261225557612254612200565b5b828204905092915050565b600061226b82611e17565b915061227683611e17565b9250827fffffffffffffffffffffffffffffffffffffffffffffffffffffffffffffffff038211156122ab576122aa612143565b5b828201905092915050565b7f4e487b7100000000000000000000000000000000000000000000000000000000600052602260045260246000fd5b600060028204905060018216806122fd57607f821691505b6020821081036123105761230f6122b6565b5b50919050565b600060408201905061232b60008301856120d9565b6123386020830184611e21565b9392505050565b61234881611f72565b811461235357600080fd5b50565b6000815190506123658161233f565b92915050565b60006020828403121561238157612380611d87565b5b600061238f84828501612356565b91505092915050565b7f4f776e61626c653a2063616c6c6572206973206e6f7420746865206f776e6572600082015250565b60006123ce602083611e56565b91506123d982612398565b602082019050919050565b600060208201905081810360008301526123fd816123c1565b9050919050565b7f596f75206e65656420746f2073656e6420736f6d652065746865720000000000600082015250565b600061243a601b83611e56565b915061244582612404565b602082019050919050565b600060208201905081810360008301526124698161242d565b9050919050565b7f45524332303a2064656372656173656420616c6c6f77616e63652062656c6f7760008201527f207a65726f000000000000000000000000000000000000000000000000000000602082015250565b60006124cc602583611e56565b91506124d782612470565b604082019050919050565b600060208201905081810360008301526124fb816124bf565b9050919050565b600060608201905061251760008301866120d9565b61252460208301856120d9565b6125316040830184611e21565b949350505050565b7f52657761726420657870697265642061667465722061207765656b0000000000600082015250565b600061256f601b83611e56565b915061257a82612539565b602082019050919050565b6000602082019050818103600083015261259e81612562565b9050919050565b7f4f776e61626c653a206e6577206f776e657220697320746865207a65726f206160008201527f6464726573730000000000000000000000000000000000000000000000000000602082015250565b6000612601602683611e56565b915061260c826125a5565b604082019050919050565b60006020820190508181036000830152612630816125f4565b9050919050565b7f45524332303a20617070726f76652066726f6d20746865207a65726f2061646460008201527f7265737300000000000000000000000000000000000000000000000000000000602082015250565b6000612693602483611e56565b915061269e82612637565b604082019050919050565b600060208201905081810360008301526126c281612686565b9050919050565b7f45524332303a20617070726f766520746f20746865207a65726f20616464726560008201527f7373000000000000000000000000000000000000000000000000000000000000602082015250565b6000612725602283611e56565b9150612730826126c9565b604082019050919050565b6000602082019050818103600083015261275481612718565b9050919050565b7f45524332303a20696e73756666696369656e7420616c6c6f77616e6365000000600082015250565b6000612791601d83611e56565b915061279c8261275b565b602082019050919050565b600060208201905081810360008301526127c081612784565b9050919050565b7f45524332303a207472616e736665722066726f6d20746865207a65726f20616460008201527f6472657373000000000000000000000000000000000000000000000000000000602082015250565b6000612823602583611e56565b915061282e826127c7565b604082019050919050565b6000602082019050818103600083015261285281612816565b9050919050565b7f45524332303a207472616e7366657220746f20746865207a65726f206164647260008201527f6573730000000000000000000000000000000000000000000000000000000000602082015250565b60006128b5602383611e56565b91506128c082612859565b604082019050919050565b600060208201905081810360008301526128e4816128a8565b9050919050565b7f45524332303a207472616e7366657220616d6f756e742065786365656473206260008201527f616c616e63650000000000000000000000000000000000000000000000000000602082015250565b6000612947602683611e56565b9150612952826128eb565b604082019050919050565b600060208201905081810360008301526129768161293a565b9050919050565b7f45524332303a206d696e7420746f20746865207a65726f206164647265737300600082015250565b60006129b3601f83611e56565b91506129be8261297d565b602082019050919050565b600060208201905081810360008301526129e2816129a6565b905091905056fea2646970667358221220dadda24b2287483c65980e5ee090202ea73c6b747b903a293fbe03951fa349de64736f6c634300080d0033",
  "immutableReferences": {},
  "source": "// SPDX-License-Identifier: MIT\npragma solidity ^0.8.4;\n\nimport \"@openzeppelin/contracts/token/ERC20/ERC20.sol\";\nimport \"@openzeppelin/contracts/access/Ownable.sol\";\n\ncontract BoriStake is ERC20, Ownable {\n\n    uint256 public  rate = 1000;\n\n    constructor() ERC20(\"BoriStake\", \"BSTK\") {\n        _mint(msg.sender, 1000 * 10 ** decimals());\n    }\n\n    event Buy(uint256 amount); \n\n    function mint(address to, uint256 amount) public onlyOwner {\n        _mint(to, amount);\n    }\n\n   function modifyTokenBuyPrice(uint256 _rate) public onlyOwner {\n        rate = _rate;\n    }\n\n    function buyToken(address receiver) public payable{\n\n        require(msg.value > 0, \"You need to send some ether\"); \n        uint256 amountTobuy = msg.value * rate; \n        \n        mint(receiver, amountTobuy);\n        emit Buy(amountTobuy);\n        payable(receiver).transfer(msg.value);\n    }\n}\n\ncontract StakingRewards is BoriStake{\n    IERC20 public rewardsToken;\n    IERC20 public stakingToken;\n\n    uint public rewardRate = 100;\n    uint public lastUpdateTime = block.timestamp;\n    uint public rewardPerTokenStored = 0;\n\n    mapping(address => uint) public userRewardPerTokenPaid;\n    mapping(address => uint) public rewards;\n\n    uint private _totalSupply;\n    mapping(address => uint) private _balances;\n\n    constructor(address _stakingToken, address _rewardsToken) {\n        stakingToken = IERC20(_stakingToken);\n        rewardsToken = IERC20(_rewardsToken);\n    }\n\n    function rewardPerToken() public view returns (uint) {\n        require(block.timestamp -lastUpdateTime <= 1 * 1 weeks ,\"Reward expired after a week\");// expiry check\n        if (_totalSupply == 0) {\n            return rewardPerTokenStored;\n        }\n        return\n            rewardPerTokenStored +\n            ((rewardRate * 1e18) / _totalSupply);\n    }\n\n    function earned(address account) public view returns (uint) {\n        return\n            ((_balances[account] *\n                (rewardPerToken() - userRewardPerTokenPaid[account])) / 1e18) +\n            rewards[account];\n    }\n\n    modifier updateReward(address account) {\n        rewardPerTokenStored = rewardPerToken();\n        lastUpdateTime = block.timestamp;\n\n        rewards[account] = earned(account);\n        userRewardPerTokenPaid[account] = rewardPerTokenStored;\n        _;\n    }\n\n    function stake(uint _amount) external updateReward(msg.sender) {\n        _totalSupply += _amount;\n        _balances[msg.sender] += _amount;\n        stakingToken.transferFrom(msg.sender, address(this), _amount);\n    }\n\n    function withdraw(uint _amount) external updateReward(msg.sender) {\n        _totalSupply -= _amount;\n        _balances[msg.sender] -= _amount;\n        stakingToken.transfer(msg.sender, _amount);\n    }\n\n    function getReward() external updateReward(msg.sender) {\n        uint reward = rewards[msg.sender];\n        rewards[msg.sender] = 0;\n        rewardsToken.transfer(msg.sender, reward);\n    }\n}\n",
  "sourcePath": "/Users/mac/Documents/ERC20/test/contracts/StakingRewards.sol",
  "compiler": {
    "name": "solc",
    "version": "0.8.13+commit.abaa5c0e.Emscripten.clang"
  },
  "schemaVersion": "3.4.6",
  "updatedAt": "2022-03-20T22:20:59.035Z",
  "networkType": "ethereum",
  "devdoc": {
    "kind": "dev",
    "methods": {
      "allowance(address,address)": {
        "details": "See {IERC20-allowance}."
      },
      "approve(address,uint256)": {
        "details": "See {IERC20-approve}. NOTE: If `amount` is the maximum `uint256`, the allowance is not updated on `transferFrom`. This is semantically equivalent to an infinite approval. Requirements: - `spender` cannot be the zero address."
      },
      "balanceOf(address)": {
        "details": "See {IERC20-balanceOf}."
      },
      "decimals()": {
        "details": "Returns the number of decimals used to get its user representation. For example, if `decimals` equals `2`, a balance of `505` tokens should be displayed to a user as `5.05` (`505 / 10 ** 2`). Tokens usually opt for a value of 18, imitating the relationship between Ether and Wei. This is the value {ERC20} uses, unless this function is overridden; NOTE: This information is only used for _display_ purposes: it in no way affects any of the arithmetic of the contract, including {IERC20-balanceOf} and {IERC20-transfer}."
      },
      "decreaseAllowance(address,uint256)": {
        "details": "Atomically decreases the allowance granted to `spender` by the caller. This is an alternative to {approve} that can be used as a mitigation for problems described in {IERC20-approve}. Emits an {Approval} event indicating the updated allowance. Requirements: - `spender` cannot be the zero address. - `spender` must have allowance for the caller of at least `subtractedValue`."
      },
      "increaseAllowance(address,uint256)": {
        "details": "Atomically increases the allowance granted to `spender` by the caller. This is an alternative to {approve} that can be used as a mitigation for problems described in {IERC20-approve}. Emits an {Approval} event indicating the updated allowance. Requirements: - `spender` cannot be the zero address."
      },
      "name()": {
        "details": "Returns the name of the token."
      },
      "owner()": {
        "details": "Returns the address of the current owner."
      },
      "renounceOwnership()": {
        "details": "Leaves the contract without owner. It will not be possible to call `onlyOwner` functions anymore. Can only be called by the current owner. NOTE: Renouncing ownership will leave the contract without an owner, thereby removing any functionality that is only available to the owner."
      },
      "symbol()": {
        "details": "Returns the symbol of the token, usually a shorter version of the name."
      },
      "totalSupply()": {
        "details": "See {IERC20-totalSupply}."
      },
      "transfer(address,uint256)": {
        "details": "See {IERC20-transfer}. Requirements: - `to` cannot be the zero address. - the caller must have a balance of at least `amount`."
      },
      "transferFrom(address,address,uint256)": {
        "details": "See {IERC20-transferFrom}. Emits an {Approval} event indicating the updated allowance. This is not required by the EIP. See the note at the beginning of {ERC20}. NOTE: Does not update the allowance if the current allowance is the maximum `uint256`. Requirements: - `from` and `to` cannot be the zero address. - `from` must have a balance of at least `amount`. - the caller must have allowance for ``from``'s tokens of at least `amount`."
      },
      "transferOwnership(address)": {
        "details": "Transfers ownership of the contract to a new account (`newOwner`). Can only be called by the current owner."
      }
    },
    "version": 1
  },
  "userdoc": {
    "kind": "user",
    "methods": {},
    "version": 1
  }
}